03300000        2054675016000123219030130064563     000536447           BRIDGE CAPITAL SECURITIZADORA BANCO SANTANDER (BRASIL) S/A            211072025      000215040                                                                          
03384231T01  040 2054675016000123000536447           219030130064563     BRIDGE CAPITAL SECURITIZADORA                                                                                 0000021511072025                                         
0338423300001T 23219030130064563        000000011030229411/004       05072025000000000668260033031902614                     002045904562000106GALLO DECORACOES IMPORTACAO E EXPORTACAO01300645630000000000006500000000000                      
0338423300002U 230000000000000000000000000000000000000000000000000000000000000000000000000000000000000000000000000000000000000000000000001107202511072025000000000000000000000000000                              000                           
0338423300003T 28219030130064563        000000011030229411/004       05072025000000000668260033031902614                     002045904562000106GALLO DECORACOES IMPORTACAO E EXPORTACAO01300645630000000000009190000000000                      
0338423300004U 280000000000000000000000000000000000000000000000000000000000000000000000000000000000000009190000000000000000000000000009191107202511072025000000000000000000000000000                              000                           
0338423300005T 06219030130064563        0000000113875210741/003      11072025000000000451500033459182897                     002047252904000178RC OLIVEIRA COMERCIO DE MOVEIS LTDA BAST01300645630000000000001200300000000                      
0338423300006U 060000000000000000000000000000000000000000000000000000000000000000000004515000000000004515000000000000000000000000000000001107202514072025000000000000000000000000000                              000                           
0338423300007T 09219030130064563        00000001147232909/002        06072025000000001569000033200873262                     002048886175000174RESIDENCIAL NEW SOUTH SPE LTDA          01300645630000000000001191000000000                      
0338423300008U 090000000000000000000000000000000000000000000000000000000000000000000000000000000000000000000000000000000000000000000000001107202511072025000000000000000000000000000                              000                           
0338423300009T 06219030130064563        0000000115509214045/002      11072025000000000196667748717503300                     0020002526630001011201 TRANSGIROS TURISMO E VIAGENS LTDA  01300645630000000000001200400000000                      
0338423300010U 060000000000000000000000000000000000000000000000000000000000000000000001966670000000001966670000000000000000000000000000001107202514072025000000000000000000000000000                              000                           
0338423300011T 14219030130064563        0000000115860211671/002      14082025000000001199867033200873378                     002057460804000190HERITAGE MOVELARIA LTDA                 01300645630000000000006200000000000                      
0338423300012U 140000000000000000000000000000000000000000000000000000000000000000000000000000000000000000000000000000000000000000000000001107202511072025000000000000000000000000000                              000                           
0338423300013T 14219030130064563        0000000115878211671/001      22072025000000001199867033200873383                     002057460804000190HERITAGE MOVELARIA LTDA                 01300645630000000000006200000000000                      
0338423300014U 140000000000000000000000000000000000000000000000000000000000000000000000000000000000000000000000000000000000000000000000001107202511072025000000000000000000000000000                              000                           
0338423300015T 14219030130064563        0000000115886211671/003      10092025000000001199866033200873374                     002057460804000190HERITAGE MOVELARIA LTDA                 01300645630000000000006200000000000                      
0338423300016U 140000000000000000000000000000000000000000000000000000000000000000000000000000000000000000000000000000000000000000000000001107202511072025000000000000000000000000000                              000                           
0338423300017T 06219030130064563        0000000117544211981/001      12072025000000000224153756800503657                     002004419014000103CASA MIX TAPETES E OBJETOS LTDA EPP     01300645630000000000001200400000000                      
0338423300018U 060000000000000000000000000000000000000000000000000000000000000000000002241530000000002241530000000000000000000000000000001107202514072025000000000000000000000000000                              000                           
0338423300019T 06219030130064563        0000000118443212251/001      11072025000000000299000341006203821                     002051586026000102TOPO DESIGN E ARQUITETURA LTDA          01300645630000000000001200400000000                      
0338423300020U 060000000000000000000000000000000000000000000000000000000000000000000002990000000000002990000000000000000000000000000000001107202514072025000000000000000000000000000                              000                           
0338423300021T 06219030130064563        000000011875320045513/001    11072025000000000280834001034303862                     002041532388000159EMPAR INDUSTRIA E COMERCIO DE EMBALAGENS01300645630000000000001200400000000                      
0338423300022U 060000000000000000000000000000000000000000000000000000000000000000000002808340000000002808340000000000000000000000000000001107202514072025000000000000000000000000000                              000                           
0338423300023T 06219030130064563        000000011876120045512/001    11072025000000000154843001034303852                     002041532388000159EMPAR INDUSTRIA E COMERCIO DE EMBALAGENS01300645630000000000001200400000000                      
0338423300024U 060000000000000000000000000000000000000000000000000000000000000000000001548430000000001548430000000000000000000000000000001107202514072025000000000000000000000000000                              000                           
0338423300025T 06219030130064563        000000011984923674/001       11072025000000000140400237575003990                     002018118954000169RESIDENCIAL VISTA ALEGRE EMPREENDIMENTOS01300645630000000000001200400000000                      
0338423300026U 060000000000000000000000000000000000000000000000000000000000000000000001404000000000001404000000000000000000000000000000001107202514072025000000000000000000000000000                              000                           
0338423300027T 06219030130064563        000000011985723673/001       11072025000000000265800237575003989                     002018118954000169RESIDENCIAL VISTA ALEGRE EMPREENDIMENTOS01300645630000000000001200400000000                      
0338423300028U 060000000000000000000000000000000000000000000000000000000000000000000002658000000000002658000000000000000000000000000000001107202514072025000000000000000000000000000                              000                           
0338423300029T 02219030130064563        0000000123510239/002         10092025000000001450000033200874519                     002034102228000104ASSOCIACAO DOS MAGISTRADOS BRASILEIROS  01300645630000000000000000000000000                      
0338423300030U 020000000000000000000000000000000000000000000000000000000000000000000000000000000000000000000000000000000000000000000000001107202511072025000000000000000000000000000                              000                           
0338423300031T 02219030130064563        000000012352823691-006       23092025000000001199622033200874518                     002012507814000104JR COMERCIO DE COMPENSADOS LTDA         01300645630000000000000000000000000                      
0338423300032U 020000000000000000000000000000000000000000000000000000000000000000000000000000000000000000000000000000000000000000000000001107202511072025000000000000000000000000000                              000                           
0338423300033T 02219030130064563        000000012353623691/003       30082025000000001199622033200874513                     002012507814000104JR COMERCIO DE COMPENSADOS LTDA         01300645630000000000000000000000000                      
0338423300034U 020000000000000000000000000000000000000000000000000000000000000000000000000000000000000000000000000000000000000000000000001107202511072025000000000000000000000000000                              000                           
0338423300035T 02219030130064563        000000012354423691-004       06092025000000001199622033200874516                     002012507814000104JR COMERCIO DE COMPENSADOS LTDA         01300645630000000000000000000000000                      
0338423300036U 020000000000000000000000000000000000000000000000000000000000000000000000000000000000000000000000000000000000000000000000001107202511072025000000000000000000000000000                              000                           
0338423300037T 02219030130064563        000000012355223691/001       15082025000000001199622033200874514                     002012507814000104JR COMERCIO DE COMPENSADOS LTDA         01300645630000000000000000000000000                      
0338423300038U 020000000000000000000000000000000000000000000000000000000000000000000000000000000000000000000000000000000000000000000000001107202511072025000000000000000000000000000                              000                           
0338423300039T 02219030130064563        000000012356023691-005       14092025000000001199622033200874517                     002012507814000104JR COMERCIO DE COMPENSADOS LTDA         01300645630000000000000000000000000                      
0338423300040U 020000000000000000000000000000000000000000000000000000000000000000000000000000000000000000000000000000000000000000000000001107202511072025000000000000000000000000000                              000                           
0338423300041T 02219030130064563        000000012357923691/002       22082025000000001199622033200874515                     002012507814000104JR COMERCIO DE COMPENSADOS LTDA         01300645630000000000000000000000000                      
0338423300042U 020000000000000000000000000000000000000000000000000000000000000000000000000000000000000000000000000000000000000000000000001107202511072025000000000000000000000000000                              000                           
03384235         0000420004110000000036472808200000000000000000000000000000000000000000000000000000000000000000000000000202                                                                                                                     
03384239         000001000046                                                                                                                                                                                                                   
